:020000040800F2
:10000000008002200D0E0008E10B0008E30B000841
:10001000E50B0008E70B0008E90B000800000000F2
:1000200000000000000000000000000091470008F0
:10003000EB0B000800000000F1470008194E000813
:100040005D0E00085D0E00085D0E00085D0E0008E4
:100050005D0E00085D0E00085D0E00085D0E0008D4
:100060005D0E00085D0E00085D0E00085D0E0008C4
:10007000ED0B0008F90B00085D0E00085D0E00088E
:10008000050C0008110C00085D0E00085D0E00084C
:100090005D0E00085D0E00085D0E00081D0C0008D6
:1000A0005D0E00085D0E00085D0E00085D0E000884
:1000B0005D0E00085D0E000800000000250C000821
:1000C000310C00085D0E00085D0E00085D0E000892
:1000D0005D0E00085D0C0008670C00085D0E00084E
:1000E0003D0C00085D0E000800000000000000004C
:1000F0000000000000000000000000000000000000
:10010000000000005D0E0008000000005D0E000809
:100110005D0E000800000000450C00080000000013
:100120005D0E00085D0E00085D0E00085D0E000803
:100130005D0E00085D0E00085D0E00080000000066
:100140005D0E0008E9560008510C00085D0E00081D
:100150005D0E00085D0E00085D0E00085D0E0008D3
:100160005D0E00085D0E00085D0E00080000000036
:10017000000000005D0E000800000000000000000C
:100180005D0E00085D0E00085D0E00085D0E0008A3
:040190005D0E0008F8
:1001A00010B5054C237833B9044B13B10448AFF3B1
:1001B00000800123237010BD7400002000000000A7
:1001C000485B000808B5034B1BB103490348AFF374
:1001D000008008BD0000000078000020485B000897
:1001E00053B94AB9002908BF00281CBF4FF0FF319E
:1001F0004FF0FF3000F074B9ADF1080C6DE904CE9A
:1002000000F006F8DDF804E0DDE9022304B07047F1
:100210002DE9F047089D04468E46002B4DD18A42B9
:10022000944669D9B2FA82F252B101FA02F3C2F1EC
:10023000200120FA01F10CFA02FC41EA030E94407D
:100240004FEA1C48210CBEFBF8F61FFA8CF708FB9E
:1002500016E341EA034306FB07F199420AD91CEB76
:10026000030306F1FF3080F01F81994240F21C81A8
:10027000023E63445B1AA4B2B3FBF8F008FB1033F0
:1002800044EA034400FB07F7A7420AD91CEB040425
:1002900000F1FF3380F00A81A74240F207816444F5
:1002A000023840EA0640E41B00261DB1D44000237A
:1002B000C5E900433146BDE8F0878B4209D9002DDE
:1002C00000F0EF800026C5E9000130463146BDE868
:1002D000F087B3FA83F6002E4AD18B4202D38242D2
:1002E00000F2F980841A61EB030301209E46002D81
:1002F000E0D0C5E9004EDDE702B9FFDEB2FA82F2D6
:10030000002A40F09280A1EB0C014FEA1C471FFA33
:100310008CFE0126200CB1FBF7F307FB131140EA1A
:1003200001410EFB03F0884208D91CEB010103F1E7
:10033000FF3802D2884200F2CB804346091AA4B2A9
:10034000B1FBF7F007FB101144EA01440EFB00FE7D
:10035000A64508D91CEB040400F1FF3102D2A645E2
:1003600000F2BB800846A4EB0E0440EA03409CE781
:10037000C6F12007B34022FA07FC4CEA030C20FA2E
:1003800007F401FA06F31C43F9404FEA1C4900FA4E
:1003900006F3B1FBF9F8200C1FFA8CFE09FB1811CB
:1003A00040EA014108FB0EF0884202FA06F20BD93E
:1003B0001CEB010108F1FF3A80F08880884240F28E
:1003C0008580A8F102086144091AA4B2B1FBF9F0D2
:1003D00009FB101144EA014100FB0EFE8E4508D9CD
:1003E0001CEB010100F1FF346CD28E456AD9023852
:1003F000614440EA0840A0FB0294A1EB0E01A14237
:10040000C846A64656D353D05DB1B3EB080261EBA4
:100410000E0101FA07F722FA06F3F1401F43C5E97E
:10042000007100263146BDE8F087C2F12003D840B4
:100430000CFA02FC21FA03F3914001434FEA1C47F6
:100440001FFA8CFEB3FBF7F007FB10360B0C43EAE8
:10045000064300FB0EF69E4204FA02F408D91CEB98
:10046000030300F1FF382FD29E422DD90238634496
:100470009B1B89B2B3FBF7F607FB163341EA034136
:1004800006FB0EF38B4208D91CEB010106F1FF3885
:1004900016D28B4214D9023E6144C91A46EA00467C
:1004A00038E72E46284605E70646E3E61846F8E60E
:1004B0004B45A9D2B9EB020864EB0C0E0138A3E757
:1004C0004646EAE7204694E74046D1E7D0467BE738
:1004D000023B614432E7304609E76444023842E7B0
:1004E000704700BF164B07B59A6C42F001029A6440
:1004F0009B6C03F001030193002205210C20019B5A
:1005000000F0FCFC0C2000F02BFD002205210D204A
:1005100000F0F4FC0D2000F023FD00220521102046
:1005200000F0ECFC102000F01BFD00220521112042
:1005300000F0E4FC112003B05DF804EB00F010BD06
:100540000010024010B50E4C05F08EF94FF47A7091
:1005500005F0AAF905F088F905F086F94FF47A70EC
:1005600000F0A6FC05F080F905F07EF9204605F0C4
:1005700087F905F079F904F08DFF05F055F9E3E707
:1005800040420F0030B5074D0FCD87B001AC0FC40E
:100590002B682360002101A802F0A9FE024B18601D
:1005A00007B030BD605B0008900000202DE9F041ED
:1005B00014228AB00DEB0200002105F0FBF94B4B31
:1005C000DFF83081DA6C42F00402DA64DA6C02F0AF
:1005D00004020192019ADA6C42F08002DA64DA6C69
:1005E00002F080020292029ADA6C42F00102DA64AE
:1005F000DA6C02F001020392039ADA6C42F0020212
:10060000DA64DB6C012203F00203049311464FF01D
:100610009040049B00F06EFE00224FF481514FF099
:10062000904000F067FE404600220221002400F0C6
:1006300061FE4FF400524FF4041305A92C480794AF
:10064000CDE90523012500F08BFD022605A94FF019
:100650009040CDE905550794089600F081FD2023D0
:1006600005A94FF09040CDE905350327CDE90744B2
:1006700000F076FD05A94046CDE905650794089789
:1006800000F06EFD4FF444134FF48071CDE9051373
:100690004FF0904005A9079400F062FD4FF480539D
:1006A00005A94FF09040CDE90535CDE9074700F0A9
:1006B00057FD4FF4004305A94FF09040CDE90534B4
:1006C000079600F04DFD22460521172000F016FC8C
:1006D000172000F045FC22460521282000F00EFCE2
:1006E000282000F03DFC0AB0BDE8F0810010024077
:1006F000000800480004004808B51248124A134B8D
:10070000C0E9002300230122C0E90232C0E904331A
:10071000C0E90633036200F02EFE08B100F04AF98A
:100720000848002101F00EF908B100F043F905482E
:10073000002101F02DF918B1BDE8084000F03AB9E8
:1007400008BD00BF240100200054004019063000FD
:1007500070B5A2B005461422002103A805F02AF9BD
:100760006822002108A805F025F92A68364B9A422C
:1007700068D14023089308A84FF40053159302F062
:100780000BF808B100F016F9304C3148E36C43F037
:100790000203E364E36C03F002030193019B4FF453
:1007A00040711223CDE9031303260123CDE9053659
:1007B00003A90423079300F0D3FCA36D43F40013B3
:1007C000A365A36D234C03F400130293029B224BF9
:1007D0001020C4E900360023C4E902038022204629
:1007E000C4E90423C4E90633236200F0D9FB08B14D
:1007F00000F0E0F8194AAC63A562194C0323C4E980
:100800000023204600238022C4E90233C4E90423E4
:10081000C4E90633236200F0C3FB08B100F0CAF854
:10082000002205211F20EC63A56200F067FB1F205A
:1008300000F096FB20200022052100F05FFB202025
:1008400000F08EFB22B070BD00540040001002404A
:1008500000040048DC0000206C00024080000240E0
:10086000940000200B480C4A08B50023C0E900237F
:100870004FF6FF72C0E90833C0E90A338360426172
:10088000036301F0F5F818B1BDE8084000F092B834
:1008900008BD00BF880100200094004010B5044648
:1008A0009CB06822002102A805F084F82268114B50
:1008B0009A421DD14FF48063029302A84FF4401373
:1008C000149301F069FF08B100F074F80A4BDA6D77
:1008D00042F02002DA65DB6D03F020030193422031
:1008E00000220521019B00F009FB422000F038FBAB
:1008F0001CB010BD009400400010024010B596B02E
:100900004422002105A805F055F81422002168466C
:1009100005F050F84FF4007001F05EFA10B11A4B78
:1009200001221A7001F048FA184AD2F8903023F0E8
:100930001803C2F890301E23012405934FF48073EE
:10094000CDE907434023CDE90934B022002305A8AF
:10095000CDE90C320B940F9301F004FB08B10A4B64
:100960001C7000230F2202216846CDE90023CDE947
:100970000233049301F09AFD10B1034B01221A7067
:1009800002F098F816B010BDC0010020001002401F
:10099000024B002218781A70704700BFC001002077
:1009A0000268034B9A4201D100F070BA704700BF51
:1009B00000100040014B01221A707047C001002056
:1009C0001048114A08B54FF48273C0E90023002390
:1009D0004FF4E062C0E902324FF400712022C0E916
:1009E00006120722C0E90433C0E90833C0E90B232B
:1009F0008362436302F066F818B1BDE80840FFF770
:100A0000D9BF08BD540200200030014030B5054672
:100A100089B01422002103A804F0CCFF2A682B4BD4
:100A20009A4251D103F56043C2211A6E284C42F418
:100A300080521A661A6E02F480520192019ADA6CA0
:100A400042F00102DA64DB6C03F001030293029BC3
:100A50000223CDE9031303200523CDE9060303A9EF
:100A60004FF0904000F07CFBDFF870C00123C4E938
:100A700000C34FF0100E002380222046C4E902E399
:100A8000C4E90423C4E90633236200F089FA08B1FB
:100A9000FFF790FF0F4A6C65A5620F4C0123C4E974
:100AA000002300238022C4E90233C4E90423C4E9FB
:100AB000063320464FF40053236200F071FA08B168
:100AC000FFF778FFAC65A56209B030BD003001408A
:100AD0000C0200201C000240C40100203000024033
:100AE0000D4B1A6E42F001021A661A6E82B002F0C5
:100AF00001020092009A9A6D42F080529A659B6DB5
:100B000003F080530193019B00220F216FF001003D
:100B100002B000F0F3B900BF00100240214B70B5E5
:100B20009A6D42F010029A659B6D88B003F0100335
:100B30000293054601A903A8029B01F085FD069BCF
:100B40004BBB01F05DFD184E184B336040F2E733AC
:100B5000F360174BB0FBF3F3013B736030460023A7
:100B60003361B360B36102F03DF9044680B93046A9
:100B700002F014F8044658B9362000F0F1F90F2DB0
:100B80000DD822462946362000F0B8F9094B1D60E1
:100B9000204608B070BD01F033FD4000D3E70124CA
:100BA000F6E700BF00100240B8020020001000402D
:100BB00040420F0008000020034B1A68D36823F05E
:100BC0000103D360704700BFB8020020034B1A68CE
:100BD000D36843F00103D360704700BFB802002020
:100BE000FEE7FEE7FEE7FEE7FEE77047014800F09C
:100BF00069BA00BFC4010020014800F063BA00BF19
:100C00000C020020014800F05DBA00BFDC000020AB
:100C1000014800F057BA00BF940000204FF48070E4
:100C200000F06EBB014800F0F7BB00BF24010020BC
:100C3000014800F04CBE00BF240100204FF40050DA
:100C400000F05EBB014801F0DBBF00BFB80200202E
:100C5000014800F06DBF00BF8801002008B50120E9
:100C600004F0B4FA08BD08B5002004F0AFFA08BDDE
:100C7000034AD2F8883043F47003C2F888307047D2
:100C800000ED00E00D480E4A08B54FF4E133C0E92D
:100C900000230C2100234FF40072C0E90233C0E9A5
:100CA0000512C0E907330361436202F0DCFA18B1B0
:100CB000BDE80840FFF77EBE08BD00BF040300206A
:100CC000003801400C480D4A08B54FF4E133C0E943
:100CD000002300230C22C0E90233C0E90523C0E948
:100CE00007330361436202F0BEFA18B1BDE8084061
:100CF000FFF760BE08BD00BF88030020004400402D
:100D000010B51422A4B0044600210DEB020004F03B
:100D100051FE682200210AA804F04CFE2368384ADC
:100D2000934236D101230A930AA80223129301F0B9
:100D300033FD08B1FFF73EFE324B1A6E42F480429B
:100D40001A661A6E02F480420192019ADA6C42F03D
:100D50000102DA64DB6C03F001030293029B4FF49F
:100D600060600223CDE9050300240323CDE9074396
:100D700005A907234FF09040099300F0F1F92520D1
:100D80002246052100F0BAF8252000F0E9F824B049
:100D900010BD1D4A9342FAD102230A930AA80823E0
:100DA000139301F0F9FC08B1FFF704FE154B9A6D9F
:100DB00042F400329A659A6D02F400320392039A6B
:100DC000DA6C42F00102DA64DB6C03F00103049395
:100DD0000C22049B0223CDE9052300240323CDE943
:100DE000074305A907234FF09040099300F0B8F995
:100DF00026202246052100F081F82620C5E700BF05
:100E0000003801400010024000440040DFF834D0B8
:100E1000FFF72EFF0C480D490D4A002302E0D4587D
:100E2000C4500433C4188C42F9D30A4A0A4C002334
:100E300001E013600432A242FBD304F087FD04F00A
:100E40003CFDFEE70080022000000020740000202E
:100E5000F05C000874000020C4540020FEE700008D
:100E6000094A136843F4807310B50320136000F03F
:100E700033F80F20FFF752FE044618B9FFF730FE93
:100E8000204610BD0124FBE700200240034A044B2A
:100E900011681B780B441360704700BF0C040020DE
:100EA00004000020014B1868704700BF0C040020AC
:100EB00038B50446FFF7F6FF631C1CBF054B1B78D3
:100EC000054618BFE418FFF7EDFF431BA342FAD312
:100ED00038BD00BF040000200749CA6822F4E06260
:100EE0000302120403F4E063120C134343F0BF63E4
:100EF00043F40033CB60704700ED00E0164B30B593
:100F0000DC68C4F30224C4F10705231D042D28BFA7
:100F10000425062B4FF0FF338CBF033C002403FA5B
:100F200005F521EA0501A34022EA0302A1400028B9
:100F300041EA0203ACBF00F16040084A4FEA0313E4
:100F4000B8BF00F00F00DBB2AABF00F56140135438
:100F500080F8003330BD00BF00ED00E014ED00E08C
:100F6000002808DB0123420900F01F0003FA00F00B
:100F7000014B43F82200704700E100E0BFF34F8FC0
:100F80000549064BCA6802F4E0621343CB60BFF325
:100F90004F8F00BFFDE700BF00ED00E00400FA0541
:100FA00030B500285BD001682E4B99424FF01404F5
:100FB00042D82D4A0A44B2FBF4F292004264A3F2F2
:100FC00007430364022380F82530D0E90243056912
:100FD0000A6823432B4345692B4385692B43C56925
:100FE0002B43056A22F4FF4222F070022B43134385
:100FF000B4F5804F0B6016D0446C016C04F01C02F9
:1010000044680F2393409440184A91426FEA0303C7
:101010001AD1D1F8A8201340C1F8A830D1F8A830CF
:101020001C43C1F8A84000230122C36380F8243088
:1010300080F82520184630BD0D4B0B44B3FBF4F36C
:101040009B0043640B4BBCE7D2F8A8140B40C2F8DA
:10105000A834D2F8A8341C43C2F8A844E3E701201E
:10106000E9E700BF07040240F8FFFDBF00000240AF
:10107000F8FBFDBF0004024010B590F82520022ABD
:1010800003D00422C263012010BD0268836B116883
:1010900021F00E011160116821F001011160D0E909
:1010A0001042012102F01C0201FA02F262600024E7
:1010B00080F8251080F8244013B198472046E3E7D4
:1010C0001846E1E7016C426C036870B402F01C0240
:1010D0000E681D680424944034420ED015F0040FAD
:1010E0000BD01A6892065EBF1A6822F004021A60DA
:1010F000036B4C6073B370BC1847022494403442B5
:1011000012D015F0020F0FD01A68950606D41A688F
:1011100022F00A021A60012380F8253000234C6077
:1011200080F82430C36AE5E708249440344211D0A3
:101130002C070FD51C6824F00E041C60012303FA51
:1011400002F24A60C36380F82530002380F824301F
:10115000436BCFE770BC704790F8250070470000E4
:101160002DE9F74FDFF87C915C4C00230A6832FAD6
:1011700003F502D103B0BDE8F08F012505FA03FEA7
:101180001EEA020200F0A0804E68032706F0030565
:101190004FEA430807FA08FC6F1E012F6FEA0C0C98
:1011A00034D8876807EA0C0ACF6807FA08F747EAD5
:1011B0000A078760476827EA0E0EC6F300179F40AC
:1011C00047EA0E074760C76807EA0C0E8F6807FA00
:1011D00008F747EA0E07022DC76019D14FEAD30A74
:1011E00000EB8A0A03F0070BDAF820704FEA8B0B4A
:1011F0004FF00F0E0EFA0BFE27EA0E0E0F6907FADC
:101200000BF747EA0E07CAF8207001E0032DDAD188
:10121000076805FA08F507EA0C072F4316F4403F64
:10122000076051D0D9F8605045F00105C9F8605009
:10123000D9F8605023F0030707F1804705F0010556
:1012400007F58037019503F0030E019DBD684FEA55
:101250008E0E4FF00F0C0CFA0EFCB0F1904F25EAF9
:101260000C0C33D01E4DA84232D005F58065A84243
:1012700030D005F58065A8422ED005F58065A842DE
:101280000CBF0425072505FA0EF545EA0C05BD60DF
:10129000A568D74316F4801F0CBF3D401543A560D9
:1012A000E56816F4001F0CBF3D401543E560656816
:1012B00016F4003F0CBF3D40154365602568F603FA
:1012C00054BF3D401543256001334FE70025DAE761
:1012D0000125D8E70225D6E70325D4E7000401401D
:1012E00000040048001002400369194214BF0120A5
:1012F000002070470AB18161704781627047000029
:10130000044A5169014208B502D0506103F090FCD3
:1013100008BD00BF0004014003689A69910744BFFB
:1013200000229A629A69D2075EBF9A6942F001026E
:101330009A61704711F0010307D090F8413003F033
:101340002803282B0CBF4223F2238A0709D590F8E3
:10135000412002F02802282A0CBF43F0440343F046
:10136000F4030A0401680A6848BF43F0B80322EA9C
:1013700003030B60704710B5044600284AD090F86C
:10138000413003F0FF021BB980F84020FFF7E0F97D
:10139000242384F8413023681A6822F001021A607D
:1013A000626822F070621A619A6822F400429A60C0
:1013B000D4E90221012924D142F400429A605A68FA
:1013C00042F0007242F400425A60DA6822F40042AD
:1013D000DA60D4E904210A43A16942EA0122DA6011
:1013E000D4E907210A431A601A6842F001021A6020
:1013F00000202023606484F84130206384F8420098
:1014000010BD42F4044202299A6004BF4FF4006206
:101410005A60D4E70120F3E70268436B91691268D0
:1014200003B1184770477047704708B503681A68DA
:10143000002180F84210510415D51A6822F4804228
:101440001A6090F84130292B13D1282380F84130BD
:10145000212303630121FFF76DFF002380F8403053
:10146000FFF7E1FF08BD1204EBD51A6822F4004231
:10147000E6E790F841302A2BF4D1282380F8413058
:10148000222303630221FFF755FF002380F8403039
:10149000FFF7CAFFE6E7704790F8412002F0280204
:1014A000282AF8B5036834D19E69C2689D69996895
:1014B000DF682D0C022AC6F3004605F0FE051FD199
:1014C00085EAD11515F00605C1F309020ED1816C2C
:1014D00001318164816C022907D108218564D961B9
:1014E00080F840503146FFF7D6FFF8BD4FF4004179
:1014F000FFF720FF002380F8403007F0FE02F1E7FD
:101500004FF40041FFF716FF002380F840302A46D1
:10151000E8E70822DA61002380F84030E5E7704709
:1015200008B5164BC362202200230363436380F88F
:10153000412080F842304B0712D503685A6A436A4B
:101540001A70436A01334362038D4BB1013B03853B
:10155000438D013B9BB24385436C43F004034364DA
:1015600048F20301FFF7E6FE03681022DA61002368
:1015700080F84030FFF7D3FF08BD00BF0000FFFF39
:10158000704790F84120602A08B54FF0000208D15A
:10159000202180F8411080F840200263FFF7F0FF1F
:1015A00008BD026380F8402003F0FAFAF8E7000073
:1015B00070B5354A90F84130002580F84250C2623B
:1015C0004585426C283B1143022B044641642AD8CE
:1015D0000321FFF7AFFE282380F841302B4BA06B8F
:1015E0006363236B002830D0112B01D0212B2CD129
:1015F00023681A68510442BF1A6822F480421A60B4
:10160000FFF7AAFD01281BD0A06B214B83630023A9
:1016100084F84030FFF730FD002834D0A06B836B96
:10162000BDE87040184748F20301FFF783FE90F8C9
:101630004130602B1CBF202380F841300023CEE7CF
:101640002046BDE87040FFF79CBFE06B0028F7D054
:10165000122B01D0222BF3D123681A68120442BF47
:101660001A6822F400421A60FFF776FD0128E7D0DD
:10167000E06B074B8363002384F84030FFF7FCFCEA
:1016800008B1E06BCBE770BD0000FFFFBD1700089D
:101690002F190008F8B503681F6890F8415005F04D
:1016A000F7052022212D04460E46DA6151D148F279
:1016B0000101FFF73FFE256323685A6842F40042A8
:1016C0005A605A6822F0FF7222F48B3222F4FF72C1
:1016D00022F001025A602046FFF71EFE79043DD534
:1016E0002268136823F480431360A36B1BB11B684B
:1016F0005B689BB26385730710D523685A6A636A77
:101700001A70636A01336362238D26F004062BB1DD
:10171000013B2385638D013B9BB26385638D9BB247
:101720001BB1636C43F004036364002384F842300C
:10173000656C6363DDB1616C2046FFF739FF94F897
:101740004130282B25D131462046BDE8F840FFF72F
:10175000E7BE222DB0D148F20201AAE73A04CAD569
:101760002268136823F400431360E36BBEE7E36A67
:1017700013F5803F0ED02046FFF757FE0E4BE36275
:10178000202384F8413084F8405025632046FFF739
:10179000C6FEF8BD94F8413084F84050222B4FF03B
:1017A000200384F841302046256302D1FFF73CFE38
:1017B000EFE7FFF738FEECE70000FFFFF8B590F821
:1017C0004030C76A012B04460D4616467DD00123E2
:1017D0008A0680F8403003D5B30601D5FFF75AFFDB
:1017E000E80633D5F10631D5638D9BB2FBB994F889
:1017F0004130282B0AD1B7F1007F07D12946204676
:10180000FFF78EFE002084F84000F8BD94F84120D8
:101810002368292A4FF01002DA61F3D117F5803FCF
:10182000F0D02046FFF778FDFFF7FFFDEAE72368D9
:101830001022DA61636C43F00403636437F0807351
:10184000E0D1616C2046FFF7B3FEDBE76A071BD5EA
:10185000730719D5638D9BB26BB123685A6A636AAB
:101860001A70636A01336362238D013B2385638DA4
:10187000013B9BB26385638D9BB2002BC2D117F5F0
:10188000803FBFD02046CFE7280705D5310703D5D5
:101890002046FFF701FEB5E7AA07B3D5B307B1D5D8
:1018A000638D9BB26BB1636A226813F8011B91626E
:1018B0006362638D013B9BB26385238D013B23856E
:1018C000A0E737F08073DDD09CE702209DE7036836
:1018D00099691A6810B4CC0508D5140606D5446C6D
:1018E00044F0010444644FF48074DC614C0508D575
:1018F000140606D5446C44F0080444644FF4806434
:10190000DC61890508D5120606D5426C42F0020258
:1019100042644FF40072DA61416C11F00B0F03D096
:101920005DF8044BFFF744BE5DF8044B7047806AD6
:10193000836B0BB100229A63C36B0BB100229A63D5
:10194000FFF71FBE10B590F84130202BDCB21DD13F
:1019500090F84030012B19D0242380F841300368DF
:101960001A6822F001021A601A6822F480521A6082
:101970001A68114319601A6842F001021A600023C4
:1019800080F8414080F84030184610BD0220FCE746
:1019900010B590F84130202BDCB21CD190F84030CB
:1019A000012B18D0242380F8413003681A6822F0F4
:1019B00001021A601A6822F4706242EA0121196079
:1019C0001A6842F001021A60002380F8414080F852
:1019D0004030184610BD0220FCE738B5044638B345
:1019E00003684CF6CC421A6045F255521A604268C0
:1019F0005A6082689A60FFF755FA05462268D368F4
:101A000013F0070309D11069E16888420ABF4AF65A
:101A1000AA2111611160184638BDFFF743FA401B37
:101A20003128EBD92368DB685B07E7D00320F3E7B5
:101A30000120F1E703684AF6AA221A6000207047E5
:101A400010B50A4B44F620621B68B3FBF2F34FF467
:101A50007A725343026800201468013B08BF0320D8
:101A600031EA040401D0002BF6D110BD00000020A3
:101A7000F8B5044600284FD090F8363003F0FF0246
:101A80001BB980F83520FEF709FF65682068A66A53
:101A9000022384F83630012DC16802D0B6F5000F5C
:101AA00001D121F01E0162691C4F4FF6FF739A426B
:101AB0001CBF21F4604121F0C0010F40A16845EA3C
:101AC00006030B43216A0B43616A0B433B43E5B9B1
:101AD000E169256929430B43B6F5000F17D04FF68E
:101AE000FF718A4204D0A1690A43E1690A431343A2
:101AF0000B4AC3609042E36A04BF226B1343036244
:101B0000012384F836300020F8BD012DE4D1D4E95A
:101B1000031529430B43E2E70120F5E7FEF119FF26
:101B2000007C0040704770477047704770477047AF
:101B300003681A68D10710B5044606D59A68D2071B
:101B400003D501225A6003F0BBF923681A68900795
:101B500007D59A68910704D502225A602046FFF7FC
:101B6000E1FF23681A68520707D59A68500704D521
:101B700004225A602046FFF7D6FF23681A6811072F
:101B800007D59A68120704D508225A602046FFF745
:101B9000CBFF23681A68D00607D59A68D10604D50A
:101BA00010225A602046FFF7C0FF23681A68920689
:101BB00007D59A68900604D520225A602046FFF780
:101BC000B5FF23681A68510607D59A68520604D5EE
:101BD00040225A602046FFF7AAFF10BD2DE9F047CA
:101BE0000446EFF31089012383F310884B4A0368FE
:101BF000934223D002F5C052934225D00025474A94
:101C00009E68DF685969D3F818A0D3F82080934202
:101C100020D002F5C052934265D079BBBAF1000FD3
:101C200040D123681A6922F001021A619E60DF60C8
:101C3000C3F8208089F31088BDE8F087384AD2F8CD
:101C4000885005F44025DAE7354AD2F8885005F483
:101C50004015D4E7324A906B40F000409063906B9F
:101C600020F00040906311B9BAF1000FD9D0D2F83A
:101C7000880020F44020C2F8880081B11A6942F03F
:101C800001021A61204659610821FFF7D9FE236835
:101C900003284FF0080208BF84F836005A60BAF1F2
:101CA000000F12D023681A6942F001021A61102154
:101CB000C3F818A02046FFF7C3FE236803284FF09F
:101CC000100208BF84F836005A602368134A934212
:101CD0001BD002F5C0529342A3D1114AD2F88830EA
:101CE00023F4401316E00E4AD06B40F02000D0637E
:101CF000D06B20F02000D06311B9BAF1000F90D062
:101D0000D2F8880020F44010B5E7054AD2F88830B0
:101D100023F440231D43C2F8885082E7007C004032
:101D20000010024038B5022380F8363004460368BC
:101D30001F4815461F4A9342026A0CBF42F0010237
:101D400042F002020262DA6842F40022DA601A69A2
:101D500042F001021A6110225A6020469961114630
:101D6000FFF76EFE032801D1032038BD2368082148
:101D7000596020465D61FFF763FE0328F4D02046DA
:101D8000FFF72CFF94F83630032BEDD023689A68C8
:101D900042F001029A601A6942F001021A611A695E
:101DA00042F004021A61012384F836300020DCE797
:101DB00000040140007C0040024A136843F4807331
:101DC0001360704700700040024B186800F4C06058
:101DD000704700BF00700040174A1368B0F5007FDD
:101DE00003F4C0631DD1B3F5007F01D1002070471B
:101DF000136823F4C06343F4007313600F4B1B6834
:101E000032214B430E49B3FBF1F3013351694905CC
:101E100000D523B953695B05E8D503207047013B22
:101E2000F4E7B3F5806F1FBF136823F4C06343F476
:101E300080631360DAE700BF0070004000000020FC
:101E400040420F0037B51E4DAB6DDA00044618D581
:101E5000FFF7BAFFB0F5007F23D1802C29D9A02C41
:101E60008CBF02200120174A136823F007030343A5
:101E70001360136803F00703181A18BF012003B09A
:101E800030BDAB6D43F08053AB65AB6D03F0805359
:101E90000193019BFFF798FFAB6D23F08053AB6577
:101EA000D8E7802C07D808D0A4F1700358425841D5
:101EB000D9E70020D7E70320D5E70220D3E700BF0A
:101EC0000010024000200240224B9A68D96812F0AC
:101ED0000C0205D00C2A15D101F00301012918D1FB
:101EE00019681D48090755BFD3F894101968C1F344
:101EF0000321C1F3031150F821004AB30C2A09D081
:101F000000207047042A22D0082A144818BF002055
:101F100070470020DA6802F00302022A15D00F4948
:101F2000032A08BF0846D968DA68C2F3062242438A
:101F3000D868C0F34160C1F30211013001314000A3
:101F4000B2FBF1F2B2FBF0F070470548EBE7044852
:101F5000704700BF00100240985B000800127A0032
:101F60000024F4002DE9F743054608B9012047E0B5
:101F7000944C0368A668E768DB0606F00C0607F0D9
:101F8000030775D51EB10C2E54D1012F52D12368F1
:101F9000980702D5AB69002BE8D02368286A190797
:101FA00056BFD4F8943023681B0903F0F00398421D
:101FB00029D9FFF747FF0028D8D1236843F0080349
:101FC000236023682A6A23F0F003134323606368C5
:101FD000EA6923F47F4343EA02236360FFF774FF57
:101FE000A368794AC3F30313D35C03F01F03D840FB
:101FF000764B1860764B1868FEF790FD002837D0B6
:1020000003B0BDE8F083236843F00803236023682E
:1020100023F0F003034323606368EA6923F47F43FA
:1020200043EA02236360002ED8D1FFF70BFF00289C
:10203000D4D09BE7AB69002B3AD0236843F001036F
:102040002360FEF72FFF804623689A0728D5236870
:1020500043F00803236023682A6A23F0F003134344
:1020600023606368EA6923F47F4343EA02236360E1
:102070002B68D8072DD42B6899076BD42B681807C9
:1020800000F1A8802B68590700F1CE802B689906D3
:1020900000F13781AB6A002B40F05D810020AFE793
:1020A000FEF700FFA0EB08000228CDD90320A7E728
:1020B000236823F001032360FEF7F4FE80462368C3
:1020C0009B07D5D5FEF7EEFEA0EB08000228F6D957
:1020D000ECE7082E03D00C2E08D1032F06D123687D
:1020E0009A03C8D56B68002BC5D13FE76B68B3F581
:1020F000803F10D1236843F480332360FEF7D2FE83
:10210000804623689B03B6D4FEF7CCFEA0EB080004
:102110006428F6D9CAE7B3F5A02F04D1236843F4A5
:1021200080232360E6E7226822F48032226022685E
:1021300022F480222260002BE0D1FEF7B3FE80461D
:102140002368980397D5FEF7ADFEA0EB080064283E
:10215000F6D9ABE7042E03D00C2E10D1022F0ED1EE
:102160002368590503D5EB68002B3FF4FFAE636885
:102170002A6923F0FE4343EA026363607EE7EB686B
:102180007BB1236843F480732360FEF78BFE074620
:1021900023685A05EBD4FEF785FEC01B0228F7D949
:1021A00084E7236823F480732360FEF77BFE0746F1
:1021B00023685B057FF562AFFEF774FEC01B022843
:1021C000F6D973E700100240805B00080000002091
:1021D000080000206B699BB1D4F8943043F00103F0
:1021E000C4F89430FEF75EFE0746D4F894309A07A0
:1021F0003FF548AFFEF756FEC01B0228F5D955E75C
:10220000D4F8943023F00103C4F89430FEF74AFE6A
:102210000746D4F894309B077FF534AFFEF742FEB3
:10222000C01B0228F5D941E7A36DD80029D4A36DBE
:1022300043F08053A365A36D03F080530193019B8A
:102240004FF00108964F3B68D9051DD5AB68012BAF
:102250002BD1D4F8903043F00103C4F89030FEF74E
:1022600021FE41F288390746D4F890309B0742D5C9
:10227000B8F1000F3FF40AAFA36D23F08053A365BC
:1022800004E74FF00008DDE73B6843F480733B60F0
:10229000FEF708FE81463B68DA05D7D4FEF702FE5A
:1022A000A0EB09000228F6D900E7052B06D1D4F8E7
:1022B000903043F00403C4F89030CAE7D4F890207B
:1022C00022F00102C4F89020D4F8902022F00402F9
:1022D000C4F89020002BC2D1FEF7E4FD41F288390A
:1022E0000746D4F890309807C2D5FEF7DBFDC01B37
:1022F0004845F6D9DAE6FEF7D5FDC01B4845B3D907
:10230000D4E66B6A9BB1D4F8983043F00103C4F86B
:102310009830FEF7C7FD0746D4F898309A073FF586
:10232000B9AEFEF7BFFDC01B0228F5D9BEE6D4F852
:10233000983023F00103C4F89830FEF7B3FD074648
:10234000D4F898309B077FF5A5AEFEF7ABFDC01B18
:102350000228F5D9AAE6022B40F08880E368EA6AF1
:1023600003F00301914222D1296B03F0700201397D
:10237000B2EB011F1BD1696B03F4FE42B2EB012FDC
:1023800015D1A96B03F07842B2EBC16F0FD1EA6BA4
:10239000520803F4C001013AB1EB425F07D12A6C45
:1023A000520803F0C063013AB3EB426F45D00C2EE4
:1023B0003FF4DCAD23685E013FF5D8AD236823F020
:1023C00080732360FEF76EFD0646236898012ED4C5
:1023D000E268344B1340EA6A13436A6B43EA022310
:1023E000AA6B43EAC2632A6B013A43EA0213EA6B1F
:1023F0005208013A43EA42532A6C5208013A43EA2E
:102400004263E360236843F080732360E36843F032
:102410008073E360FEF746FD0546236899013FF5AA
:102420003DAEFEF73FFD401B0228F6D93EE6FEF723
:1024300039FD801B0228C8D938E623689A013FF588
:102440002DAE236843F080732360E36843F080730C
:10245000E360FEF727FD054623689B013FF51EAEAE
:10246000FEF720FD401B0228F6D91FE60C2E3FF494
:102470007DAD236823F080732360FEF713FD0546CE
:10248000236813F0007304D1E168074A0A40E26050
:1024900004E6FEF707FD401B0228F1D906E600BF5F
:1024A000007000408C809D01FCFFEEFE2DE9F041A4
:1024B0000D46044610B90120BDE8F0814B4A13686F
:1024C00003F007038B422CD32068860734D4C1075E
:1024D0003FD421688A0768D4444A136803F007038D
:1024E000AB426FD811F0040F414D77D10B0706D5E1
:1024F000AB68226923F4605343EAC203AB60FFF781
:10250000E3FCAB683B4AC3F30313BDE8F041D35C83
:1025100003F01F03D840384B1860384B1868FEF79B
:10252000FDBA136823F007030B431360136803F02D
:1025300007038B42BFD1C7E72D4AA668916801F017
:10254000F0018E4281BF936823F0F0033343936020
:10255000BDE76268264E032A33681AD113F0007F64
:10256000A9D0B36823F003031343B360FEF79AFCCA
:1025700041F288380746B368626803F00C03B3EB96
:10258000820FA6D0FEF78EFCC01B4045F3D9032076
:1025900092E7022A02D113F4003FE1E712B913F0E7
:1025A000020FDDE713F4806FDAE7114AA66890683E
:1025B00000F0F00086423FBF936823F0F0033343FE
:1025C000936089E7136823F007032B4313601368B4
:1025D00003F00703AB427FF46EAF83E7AB68E268BA
:1025E00023F4E0631343AB6080E700BF00200240A8
:1025F00000100240805B000800000020080000205E
:10260000054B064A9B68C3F30223D35C044A106857
:1026100003F01F03D840704700100240905B000891
:1026200000000020054B064A9B68C3F3C223D35C1D
:10263000044A106803F01F03D8407047001002409E
:10264000905B0008000000200F2303600B4B9A688A
:1026500002F0030242609A6802F0F00282609A6817
:1026600002F4E062C2609B68DB0803F4E06303618C
:10267000034B1B6803F007030B6070470010024018
:1026800000200240F8B5434C0368E2680546900715
:102690000E4639D0E26802F003029A4277D1002A4E
:1026A00075D0E3686A68C3F30213013393426ED1B5
:1026B000236823F080632360FEF7F4FB074623685A
:1026C0001A0140D4AB681802002E43D0012E4CD121
:1026D0002A6921695208531E21F4C00222F4FE42E5
:1026E000024342EA43522261236843F0806323603D
:1026F000FEF7D8FB064623681B0142D52369AA6969
:1027000013432361002024E0022B11D0032B13D0AC
:10271000012B3CD1226812F0020F38D0E0686A68C1
:1027200020F07300013A184340EA0210E060BFE76E
:10273000226812F4806FF0E722689103EED42268D9
:1027400012F4802FE9E7FEF7ADFBC01B0228B6D9D3
:102750000320F8BD2269EB6840EAC36322F07840A9
:1027600020F4FE4003432361BEE76B6922695B08E6
:10277000591E22F0C06323F4FE43034343EA41633E
:10278000F1E7FEF78FFB801B0228B4D9E0E70120B8
:10279000DFE700BF001002402DE9F743056815F49C
:1027A0000065044609D0C16CB1F5000F35D0B1F514
:1027B000400F37D0002940D0012523689E0351D512
:1027C000AF4EB36DD8003FD4B36D43F08053B365C3
:1027D000B36D03F080530193019B0127DFF8A482BE
:1027E000D8F8003043F48073C8F80030FEF75AFB85
:1027F0008146D8F80030D90528D575BBD6F8903079
:1028000013F4407340F00681D6F89030626E23F4E2
:1028100040731343C6F890301FE0994AD36843F4DD
:102820008033D360964AE16CD2F8883023F44003B9
:102830000B43C2F888300025BFE70430FFF722FFC2
:1028400005460028B9D1EDE70027C7E7FEF72AFBC8
:10285000A0EB09000228CCD903251FB1B36D23F0EA
:102860008053B3652368DF0708D58549206AD1F80E
:10287000882022F003020243C1F888209E0708D571
:102880007F49606AD1F8882022F00C020243C1F827
:102890008820580708D57A49A06AD1F8882022F004
:1028A00030020243C1F88820190708D57449E06A4C
:1028B000D1F8882022F0C0020243C1F888209A068D
:1028C00008D56F49206BD1F8882022F4406202437A
:1028D000C1F888209F0508D56949606CD1F8882027
:1028E00022F440220243C1F888205E0508D56449DD
:1028F000A06CD1F8882022F440120243C1F888204D
:10290000580608D55E49606BD1F8882022F4405201
:102910000243C1F88820190608D55949A06BD1F89F
:10292000882022F440420243C1F88820DA0508D505
:102930005349E06BD1F8882022F440320243C1F8B9
:102940008820DF0208D54E49206CD1F89C2022F067
:1029500003020243C1F89C209E040FD5484A216D12
:10296000D2F8883023F040630B43B1F1006FC2F816
:10297000883079D1D36843F48013D3602368180377
:102980000FD53F4A616DD2F8883023F040630B4386
:10299000B1F1006FC2F8883076D1D36843F4801368
:1029A000D360236859030FD5354AA16DD2F888301A
:1029B00023F040630B43B1F1006FC2F888306ED151
:1029C000D36843F48013D36023685A0412D52C498A
:1029D000E26DD1F8883023F040531343B2F1805FA9
:1029E000C1F8883006D10221201DFFF74BFE0028D8
:1029F00018BF05462368DB0308D5214A216ED2F8AB
:102A0000883023F000430B43C2F88830284603B0D7
:102A1000BDE8F083626E93423FF4F6AED6F89020A4
:102A2000D6F8903043F48033C6F89030D6F8903022
:102A300022F4407123F48033D207C6F89030C6F8F0
:102A400090107FF5E1AEFEF72DFA41F2883980460D
:102A5000D6F890309B073FF5D7AEFEF723FAA0EBF0
:102A600008004845F4D9F7E6B1F1806F86D101211D
:102A7000201DFFF707FE002818BF05467EE700BFB0
:102A80000010024000700040B1F1806F89D1012137
:102A9000201DFFF7F7FD002818BF054681E7B1F1BB
:102AA000806F91D10121201DFFF7ECFD002818BF98
:102AB000054689E7024A136843F004031360704730
:102AC0000010024070B5044600285FD0436A002B16
:102AD00058D14268B2F5827F00D0C3610023A3625F
:102AE00094F85D3003F0FF0223B984F85C2020469F
:102AF000FDF78CFF2568E168022384F85D302B68C0
:102B0000B1F5E06F23F040032B604FF000033FD896
:102B10004FF4805000D0A3626368A668A26906F4EF
:102B2000044603F482733343266906F002063343F6
:102B3000666906F00106334302F400763343E66922
:102B400006F038063343266A06F080063343A66A49
:102B500006F4005633432B60666B636A06F0080682
:102B600003F01003334301F47061120C194302F0B7
:102B700004020A431043686001230020206684F8A1
:102B80005D3070BD0023C0E90433A7E70120F8E7FA
:102B90001846B1F5706FBDE77047000090F83D3002
:102BA000012B23D1022380F83D300368DA6842F01C
:102BB0000102DA600E4A93420AD0B3F1804F07D087
:102BC000A2F59432934203D002F59E32934207D18C
:102BD0009968084A0A40062A06D0B2F5803F03D019
:102BE0001A6842F001021A60002070470120704705
:102BF000002C014007000100704770477047704784
:102C000003681A69910710B504460FD5DA68920770
:102C10000CD56FF002021A61012202779B699907B5
:102C200000F08580FFF7E9FF0023237723681A6906
:102C3000520710D5DA6850070DD56FF004021A61FB
:102C4000022222779B6913F4407F204675D0FFF75C
:102C5000D4FF0023237723681A6911070FD5DA6898
:102C600012070CD56FF008021A6104222277DB6983
:102C70009B07204667D0FFF7C0FF00232377236818
:102C80001A69D00610D5DA68D1060DD56FF010029A
:102C90001A6108222277DB6913F4407F204658D05E
:102CA000FFF7ABFF0023237723681A69D20708D503
:102CB000DA68D00705D56FF001021A612046FDF7EA
:102CC0006FFE23681A69110608D5DA68120605D561
:102CD0006FF080021A61204600F0B5F823681A6987
:102CE000D00508D5DA68110605D56FF480721A612F
:102CF000204600F0A9F823681A69520608D5DA6858
:102D0000500605D56FF040021A612046FFF777FFA5
:102D100023681A69910622D5DA6892061FD56FF0EA
:102D2000200220461A61BDE8104000F08BB8FFF782
:102D300063FF2046FFF762FF76E7FFF75DFF20465F
:102D4000FFF75CFF85E7FFF757FF2046FFF756FFC9
:102D500093E7FFF751FF2046FFF750FFA2E710BDB2
:102D60001D4A0368904210B505D0B0F1804F02D0E3
:102D70001A4CA0420CD14C6823F07003904243EAF5
:102D800004030CD0B0F1804F09D0144A904206D011
:102D9000134A904203D002F58062904203D1CA6880
:102DA00023F4407313434A6923F080031343036001
:102DB0008B68C3620B688362074B984207D003F5A8
:102DC000A053984203D003F58063984201D10B6968
:102DD00003630123436110BD002C01400004004047
:102DE0000040014010B5044650B390F83D3003F068
:102DF000FF021BB980F83C20FFF7CEFE02232068BB
:102E000084F83D30211DFFF7ABFF012384F84830E3
:102E1000002084F83E3084F83F3084F8403084F855
:102E2000413084F8423084F8433084F8443084F8E8
:102E3000453084F8463084F8473084F83D3010BD82
:102E40000120FCE7704770477047000070B50446EA
:102E500003682169A2681D68C0690A4361690A4361
:102E60008349024329400A431A605A68E16822F400
:102E700040520A435A607F4AA16993421CBF226AAA
:102E800011439A6822F430620A439A607A4A934264
:102E900017D17A4BD3F8883003F00303013B022BA0
:102EA00000F2C480764AD35CB0F5004F40F09B80BE
:102EB000082B22D8DFE803F07CBD9521B721212122
:102EC0008000704A934206D16C4B6F4AD3F8883029
:102ED00003F00C03E7E76D4A934218D1674BD3F830
:102EE000883003F03003202B00F0A68007D8002B99
:102EF00000F0A780102B00F09380012037E0302BEA
:102F0000FBD1B0F5004F57D04FF40040A0E0604A2D
:102F100093420FD1594BD3F8883003F0C003802B74
:102F200000F08A8004D8002B00F08B80402BE2E771
:102F3000C02BE5E74F4A9342DFD1504BD3F888309E
:102F400003F44063B3F5006F15D006D85BB1B3F559
:102F5000806FD2D1FEF7B8FF07E0B3F5406FCCD158
:102F60004FF4004008E0FFF74BFB28B90020002396
:102F7000C4E9193370BD4748626802EB42038342DB
:102F8000BBD8B0EB023FB8D8510800258C464FF4AF
:102F900080762946E0FB06C12B466046FDF720F906
:102FA0003D4BA0F540729A42A7D82368D860DDE770
:102FB000FFF726FB0028D9D06268530803EB4000D6
:102FC0004FF6EF73B0FBF2F0A0F110029A4294D8E2
:102FD00020F00F0322689BB2C0F342001843D06078
:102FE000C4E72C48E8E7082B87D801A252F823F061
:102FF00049300008153000083F300008FB2E00085B
:103000001B300008FB2E0008FB2E0008FB2E0008DA
:10301000092F0008FFF706FB18E0FEF755FF15E043
:10302000B0F5004FF9D1FEF74FFFC3E7B0F5004F01
:10303000F0D1FFF7F7FABDE7B0F5004FD1D0154852
:1030400006E0B0F5004FB3D0FFF7DAFA00288DD0D4
:10305000626800EB5203B3FBF2F34FF6EF72A3F199
:10306000100191423FF649AF2268D3607EE700BF6E
:10307000F369FFEF0080004000380140001002407B
:10308000C85B000800440040CB5B000800480040DB
:10309000004C00400024F400FFFC0F00436ADA07F4
:1030A00010B506D50168846A4A6822F400322243CA
:1030B0004A609C0706D50168C46A4A6822F48032D7
:1030C00022434A60590706D50168046B4A6822F416
:1030D000802222434A601A0706D50168446B4A6879
:1030E00022F4004222434A60DC0606D50168846B64
:1030F0008A6822F4805222438A60990606D50168C4
:10310000C46B8A6822F4005222438A605A060FD5A3
:103110000168046C4A6822F480122243B4F5801FCF
:103120004A6005D14A68446C22F4C00222434A60D6
:103130001B0606D50268816C536823F400230B43F9
:10314000536010BD2DE9F041DDF8188004460E46AD
:1031500015461F462268D36936EA03030CBF0123D4
:103160000023AB4201D0002025E0B8F1FF3FF2D0B0
:10317000FDF798FEC01B4045206802D8B8F1000F4B
:103180001BD150E8003F23F4D07340E80032002AFE
:10319000F7D100F1080353E8003F23F0010300F1E9
:1031A000080141E80032002AF3D12023A367E36736
:1031B00084F874200320BDE8F08103685A07C9D55C
:1031C000C3691B05C6D54FF40063036250E8003F96
:1031D00023F4D07340E80032002AF7D100F108034D
:1031E00053E8003F23F0010300F1080141E80032F9
:1031F000002AF3D12023A367E367C4F88030D7E720
:1032000030B50446002585B0C0F88050FDF74AFE71
:10321000226812681107034615D422681268520703
:1032200009D56FF07E4200924FF4800100222046C3
:10323000FFF788FFA0B920230020A36784F874005B
:10324000E36720660DE06FF07E42009203902A460D
:103250004FF400112046FFF775FF039B0028DCD0D8
:10326000032005B030BD10B5044640B3836F1BB9D1
:1032700080F87430FDF744FD22682423A3671368A7
:1032800023F0010313602046FFF7E0FD012816D06C
:10329000636A13B12046FFF701FF23685A6822F4DE
:1032A00090425A609A6822F02A029A601A6842F0A4
:1032B000010220461A60BDE81040FFF7A1BF0120BF
:1032C00010BD90F87430012B0FD0012380F87430BA
:1032D000016851E8002F42F0020241E80023002B70
:1032E000F6D180F87430184670470220704730B528
:1032F000044685B0228AB4F90840842C14BF0334F4
:10330000002403AD0B46D0E90010CDE9004500F0E4
:1033100007FC01280CBF0398002005B030BD00F168
:1033200008034FF0FF32C0E902234360036100232A
:103330000360704700230361704743684B609A68DD
:103340008A609A685160996003680861013303607C
:10335000704730B50C68631C0AD103695A684A602B
:1033600091608B605960036808610133036030BD70
:1033700000F10802134652681568A542FAD9EDE734
:10338000D0E9011203698A6051605968814208BF1F
:103390005A60002202611A68013A1A601868704780
:1033A00010B5044601F006FAA46B01F013FAB4FA62
:1033B00084F0400910BDF8B51546026C866B0446D2
:1033C00052B9076847BB806800F050FFA760054608
:1033D0000136A6632846F8BD65B9406802F0DCFAFC
:1033E0006368226C1344A26863609342F0D323683D
:1033F0006360EDE7C06802F0CFFA226CE3685142E7
:103400009B1A2268E36093423EBFA3685B18E360A7
:10341000022D01D116B1013E0025D9E73546D7E787
:10342000034610B41A6C08466AB1DC689968144403
:103430008C4228BF1968DC6028BFD960D9685DF864
:10344000044B02F0A9BA5DF8044B704770B504460E
:1034500001F0B0F994F8455004F124066DB2002D46
:1034600014DCFF2384F8453001F0B4F901F0A2F92F
:1034700094F8445004F110066DB2002D12DCFF23C5
:1034800084F84430BDE8704001F0A4B9636A002BB1
:10349000E7D0304600F048FE08B100F0B7FE013D2D
:1034A0006DB2DCE72369002BE9D0304600F03CFE2A
:1034B00008B100F0ABFE013D6DB2DEE738B5044661
:1034C0000D4601F077F9D4E90F31226862604B4371
:1034D000D0185B1A1344A060E3600020FF23A063B0
:1034E00084F8443084F84530A5B9236973B104F1F8
:1034F000100000F019FE48B14FF0E0234FF0805269
:10350000C3F8042DBFF34F8FBFF36F8F01F062F943
:10351000012038BD04F11000FFF701FF04F1240081
:10352000FFF7FDFEF2E7F8B50646484350300D467A
:10353000174601F013FA044658B165B100F1500383
:10354000C4E90F65236001212046FFF7B7FF84F827
:103550004C702046F8BD0346F2E72DE9F04385B0F4
:103560004FF0000804460F4601921E46C14601F086
:1035700021F9A26BE36B9A4201D3022E1BD1324692
:1035800039462046FFF717FF636A1BB104F1240098
:1035900000F0CAFD48B14FF0E0234FF08052C3F86D
:1035A000042DBFF34F8FBFF36F8F01F013F901208C
:1035B00005B0BDE8F083019D1DB901F00BF90020B5
:1035C000F6E7B8F1000F02D102A800F0EBFD01F020
:1035D00001F900F0CDFB01F0EDF894F84430FF2B39
:1035E00008BF84F8449094F84530FF2B08BF84F856
:1035F000459001F0EFF801A902A800F0DFFD40BB03
:1036000001F0D8F8A26BE36B9A420FD101F0E2F817
:10361000019904F1100000F063FD2046FFF716FF4A
:1036200000F048FC50B14FF00108A0E701F0D2F8DB
:103630002046FFF70BFF00F03DFCF4E74FF0E023DE
:103640004FF08052C3F8042DBFF34F8FBFF36F8F3D
:10365000E9E72046FFF7FAFE00F02CFCAFE710B5D3
:10366000024600210120FFF75EFF044638B1002327
:1036700083600360C3601A461946FFF76EFF204659
:1036800010BD2DE9F341044601911746984601F01B
:1036900037F9EFF311864FF0500383F31188BFF32E
:1036A0006F8FBFF34F8FA26BE36B01999A4202D3E6
:1036B000B8F1020F21D194F84550A36B6DB2424688
:1036C0002046FFF778FE6B1C12D1636A0BB901200C
:1036D00009E004F1240000F027FD0028F7D0002FB6
:1036E000F5D00120386086F3118802B0BDE8F08182
:1036F00001356DB284F84550E9E70020F3E770B575
:1037000004460D4601F0FCF8EFF311864FF050032C
:1037100083F31188BFF36F8FBFF34F8FA26BE36BFF
:1037200093421CD994F845100132FF294BB2A26391
:1037300010D1636A0BB9012009E004F1240000F004
:10374000F3FC0028F7D0002DF5D00120286086F387
:10375000118870BD01335BB284F84530EBE700207F
:10376000F5E72DE9FF41002704460E460192B846D1
:1037700001F020F8A56BE5B131462046013DFFF789
:103780004FFEA563236973B104F1100000F0CCFC77
:1037900048B14FF0E0234FF08052C3F8042DBFF33F
:1037A0004F8FBFF36F8F01F015F8012004B0BDE813
:1037B000F081019D1DB901F00DF80020F6E717B961
:1037C00002A800F0EFFC01F005F800F0D1FA00F0DB
:1037D000F1FF94F84430FF2B08BF84F8448094F83C
:1037E0004530FF2B08BF84F8458000F0F3FF01A9A6
:1037F00002A800F0E3FC00BB2046FFF7D1FDB0B10A
:10380000019904F1240000F06BFC2046FFF71EFE36
:1038100000F050FB48B94FF0E0234FF08052C3F85E
:10382000042DBFF34F8FBFF36F8F0127A0E7204612
:10383000FFF70CFE00F03EFBF7E72046FFF706FE21
:1038400000F038FB2046FFF7ABFD0028EDD0B4E7D1
:1038500010B5074A002352F833402CB942F8331010
:1038600002EBC303586010BD0133082BF3D1FAE714
:103870001004002070B504460D46164600F09AFF6D
:1038800094F84430FF2B04BF002384F8443094F8AC
:103890004530FF2B04BF002384F8453000F09AFF29
:1038A000A36B2BB93246294604F1240000F028FC12
:1038B0002046BDE87040FFF7C9BD826843680068D4
:1038C0001344181A824298BF801A70472DE9F041BC
:1038D00045688668761B96420446806928BF16466E
:1038E000174628443246884602F056F8B74205D9B2
:1038F000A069BA1B08EB060102F04EF8A2683D442D
:10390000AA4298BFAD1A65603846BDE8F081F8B5A7
:10391000054625300F46164601F020F8044690B1C2
:103920002422002102F046F804F12403012FA361B0
:1039300006F1FF3338BF01275E4205F101055E4104
:10394000A560E76026772046F8BD2DE9F8430446D8
:10395000056A00F02FFF2069B0B96169B1B9D4E9F7
:103960000287D4F81890267F2046242202F022F8FD
:10397000C4E90287C4F8189026772562012400F074
:1039800029FF2046BDE8F8830024F8E70446F6E75F
:10399000826803684168D0180138401A824298BF93
:1039A000801A70472DE9FF411E46037F1546DA074E
:1039B00004460F464CBF05F10408A846FFF7E8FF90
:1039C000039520B90025284604B0BDE8F081237F87
:1039D000DB0729D4854294BF03950390039A3946A7
:1039E0002046FFF773FF05460028ECD02046FFF77E
:1039F00064FFE3689842E6D3EFF311874FF050037A
:103A000083F31188BFF36F8FBFF34F8F236943B1E7
:103A100000231A4619462069009600F061FC002335
:103A2000236187F31188CEE78045CBD8042203A910
:103A30002046FFF74BFFD1E7F8B51A4B1A4E1D6829
:103A40000446306804300F46FFF79AFC40B93268EC
:103A50001649D06A0B680122824023EA02030B60F8
:103A6000631C07D137B131681148BDE8F840043113
:103A7000FFF763BC33682C195C6007D30D4B1868E3
:103A80003168BDE8F8400431FFF763BC0A4B1868A1
:103A900031680431FFF75DFC084B1A68A24288BF09
:103AA0001C60F8BD7405002050040020F8040020BC
:103AB0004C05002058040020540400202805002054
:103AC000094B0A4A1B681268D06A58B9084A12683A
:103AD000012A08D8012B06D8064B1868064B1B682C
:103AE000C01A704700207047F804002050040020DE
:103AF0005C0400202805002074050020064A136895
:103B00001968064B19B94FF0FF321A6070471268F6
:103B1000D268D2685268F8E75404002028050020D3
:103B20002DE9F84F9600074630460D46984600F0BE
:103B300015FF8146A0B1BC2000F010FF044660B123
:103B4000C0F830903246A521484601F033FFD4F842
:103B500030B045B984F8345013E0484600F082FF95
:103B60004FF0FF3597E06B1E04F134020F3513F868
:103B7000010F02F8010B08B19D42F8D1002384F82F
:103B800043300A9D062D28BF06254FF0000A04F198
:103B90000409E562E5644846C4F850A0FFF7CAFB93
:103BA000C5F1070504F11800FFF7C4FBC4F8B4A081
:103BB000602251462461A561646284F8B8A004F1D2
:103BC000540001F0F7FE3B4BA365043E3A4BE3651E
:103BD0005E443A4B23664246394626F0070000F021
:103BE000BFFD0B9B206003B11C6000F0E3FD344B74
:103BF000344E1A68344F01321A603568002D4DD1A9
:103C000034601B68012B1FD1B84640460135FFF7D1
:103C100086FB072D08F11408F7D1DFF8D4802B4D6F
:103C20004046FFF77CFB2846FFF779FB2848FFF763
:103C300076FB2848FFF773FB2748FFF770FB274BFD
:103C4000C3F80080264B1D60264A27491368086880
:103C500001331360E26A6364012505FA02F303434A
:103C600014200B6000FB02704946FFF766FB00F072
:103C7000B1FD1E4B1B6873B13368DA6AE36A9A427E
:103C800009D24FF0E0234FF08052C3F8042DBFF368
:103C90004F8FBFF36F8F2846BDE8F88F134B1B681B
:103CA000002BD1D13368E26ADB6A9A4228BF3460C4
:103CB000CAE700BFA05C0008C05C0008805C000888
:103CC000E8040020500400205C04002010050020BF
:103CD00034050020600500204C050020540400201D
:103CE00058040020F4040020F804002048050020B7
:103CF000FC04002013B5164B019300241549164807
:103D0000009423468022FFF70BFF01281DD100F00D
:103D1000A1FB012819D14FF0500383F31188BFF3A1
:103D20006F8FBFF34F8F0D4B0D4A1B6854331360D9
:103D30000C4B4FF0FF321A600B4B18600B4B1C60A2
:103D400002B0BDE8104000F085BD02B010BD00BF5C
:103D500024050020D85B0008BD3F00085004002067
:103D600010000020280500204805002074050020D0
:103D7000024A136801331360704700BFF00400204B
:103D8000014B1868704700BF74050020024A136891
:103D900018441060704700BF740500203A4B1B6840
:103DA0002DE9F74F002B68D1384B1D6801351D6098
:103DB0005DB9374A374B116818681060364A196088
:103DC000136801331360FFF799FE344E344F3368A4
:103DD000DFF8D8809D424FF0000411D2D8F80030AF
:103DE000DB6A14225343FB58022B2E4B1B6828BF5F
:103DF0000124002B18BF0124204603B0BDE8F08F3A
:103E0000DFF88CA0DFF8A890DAF800301B681BB947
:103E10004FF0FF333360E1E7DAF80030DB68D3F8C6
:103E20000CB0DBF80420954201D23260D6E70BF1EA
:103E3000040108460191FFF7A3FADBF82820019955
:103E400022B10BF11800FFF79BFA0199DBF82C0067
:103E5000D9F80030012282401A43C9F80020142208
:103E600002FB0070FFF769FAD8F80010DBF82C208D
:103E7000CB6A9A4228BF0124C6E70B4A1368013374
:103E800013600024B8E700BFF00400207405002090
:103E900054040020580400202C0500202805002090
:103EA0005C0400207805002030050020500400202C
:103EB000F80400202DE9F34100F07CFC2B4B1A683C
:103EC000013A1A601C6834B1002400F083FC2046DB
:103ED00002B0BDE8F081264B1B68002BF4D0254DC5
:103EE000254EDFF8A4801FE0EB68DC6804F11800C1
:103EF000FFF746FA211D08460191FFF741FAE26AF1
:103F000030680199012707FA02F30343142000FBEC
:103F100002803360FFF711FA184BE26A1B68DB6A14
:103F20009A4201D3164B1F602B68002BDCD10CB1D9
:103F3000FFF7E4FD134D2C6844B1114E0127FFF744
:103F40002DFF00B13760013CF9D12C600C4B1B6890
:103F5000002BB9D04FF0E0234FF08052C3F8042D6E
:103F6000BFF34F8FBFF36F8F0124AEE7F004002043
:103F7000E804002034050020F8040020500400204C
:103F800078050020300500205C04002008B550B9F9
:103F90004FF0E0234FF08052C3F8042DBFF34F8F52
:103FA000BFF36F8F08BD0021FFF7E2FEFFF744FD6E
:103FB000FFF780FF0028EBD0F4E70000F8B51E4DB6
:103FC0001E4F1F4E2B68E3B91E4B1B68012B09D9EE
:103FD0004FF0E0234FF08052C3F8042DBFF34F8F12
:103FE000BFF36F8FFFF76CFD0128EAD9FFF7C0FE22
:103FF000FFF766FD012801D901F0A6FAFFF75AFF85
:10400000DFE700F0D7FBFB68DC68201DFFF7B8F99D
:104010003368013B33602B68013B2B6000F0DAFB17
:1040200004F1540001F0DCFC206B00F01BFD204685
:1040300000F018FDC6E700BFEC040020600500207A
:10404000E80400205C0400201F4B1A681F4B70B569
:1040500012B101221A6070BD1D4C1A6023681B6BDF
:104060001A68B2F1A53F0BD15A68B2F1A53F07D14A
:104070009A68B2F1A53F03D1DB68B3F1A53F04D044
:1040800020682168343101F0C1FB124B1B68B3FA80
:1040900083F3DBB21049C3F11F03142606FB03F2BE
:1040A0008818083245686D6845600A44954204BF27
:1040B0006A68426006FB0313084A5B68DB6823609A
:1040C000236854331360C6E7F0040020780500200D
:1040D00050040020F80400205C04002010000020A0
:1040E00010B5064B0C4619681831FFF732F9204617
:1040F0000121BDE81040FFF79FBC00BF5004002025
:1041000038B5084B0D46196814461831FFF715F9F4
:10411000002C21460CBF28464FF0FF30BDE8384048
:10412000FFF78ABC50040020C36837B5DC6804F18F
:10413000180108460191FFF723F9144B01991B68F8
:1041400003BB211D08460191FFF71AF91048E26AE6
:1041500005680199012393402B4303600D4B142004
:1041600000FB0230FFF7E9F8FFF7C8FC0A4BE26AF0
:104170001B68DB6A9A4285BF084B0120002018604B
:1041800003B030BD0648FFF7D8F8EFE7F004002091
:10419000F80400205C040020500400207805002072
:1041A00034050020034B1B680360034B1B6843600E
:1041B000704700BF2C0500207405002070B50C4628
:1041C000054600F0F7FA0F4B196823685A1C10D007
:1041D0000D482E6800686A68864201D08A420FD96D
:1041E000881A83420AD95B1A134423602846FFF7D2
:1041F000D9FF002400F0EEFA204670BD00232360B2
:104200000124F7E7740500202C050020014B012252
:104210001A60704778050020084B186860B9084B91
:104220001B6853B9074B1868074B1B68013B984242
:1042300014BF012002207047002070473405002081
:10424000780500204C050020E8040020054B1B6881
:1042500033B1054B1B68002B0CBF022000207047B8
:104260000120704748050020F0040020F7B50446FF
:1042700010B9002003B0F0BD036DC16AC26C013BF0
:1042800091420365F5D0002BF3D1011D0846019141
:10429000FFF776F8104F114A019950B9E06A1426D9
:1042A0004643BB592BB913680125854023EA050312
:1042B0001360E36CE362C3F10700A061106801249E
:1042C00004FA03F50543142000FB03701560FFF7A3
:1042D00034F82046CEE700BF5C040020F80400203C
:1042E0002DE9F7430A9F0446894616461D4600F00D
:1042F00007FBEFF311884FF0500383F31188BFF3EE
:104300006F8FBFF34F8F15B1D4F8B4302B6094F892
:10431000B8500223721EEDB284F8B830032A09D8CF
:10432000DFE802F002101816D4F8B41041EA0901CF
:10433000C4F8B410012D10D0012088F3118803B007
:10434000BDE8F083D4F8B4300133C4F8B430F1E7F9
:10435000022D27D0C4F8B490ECE7134B1B68EBB9DF
:10436000211D08460191FFF70BF8104AE36A106817
:1043700001999D40054315600D4A142000FB032060
:10438000FEF7DBFF0B4BE26A1B68DB6A9A42D3D96C
:10439000012307B13B60084A1360CDE7074804F1E9
:1043A0001801EDE70020C8E7F0040020F804002021
:1043B0005C04002050040020780500203405002013
:1043C000F8B50F4C00F0F6F92568ADB90D4F0E4E5B
:1043D0003846FEF7A4FF3046FEF7A1FF0B4B1F60E7
:1043E0000B4B2A4610210A201E60FFF79CF8206024
:1043F00010B10849FFF72CFABDE8F84000F0EAB91F
:10440000B005002084050020980500207C050020D0
:1044100080050020DD5B0008914208B54160006125
:104420000AD8D21A83699A420DD2084B011D186826
:10443000FEF78FFF002008BD9A4201D2994202D2B6
:10444000034B011DF3E70120F5E700BF80050020C5
:104450007C05002007B5FFF7B3FF084B186850B183
:10446000074B0193022300930649074800234FF4AA
:104470008072FFF755FB03B05DF804FBB005002028
:10448000B4050020E25B0008694500087FB50F4CC9
:104490000546206816461A4680B10529CDE9001662
:1044A00002950DDCFFF7D2FE0023022808BF089A10
:1044B000206818BF1A466946FFF74FF804B070BD70
:1044C00000236946FFF7DDF8F8E700BFB0050020DC
:1044D0002DE9FF47DFF88C800646FFF751FCD8F83E
:1044E00000308342054636D91C4F4FF000093B6827
:1044F0001A685AB91A4A11683960136001232846AC
:104500003360C8F8005004B0BDE8F087DB68DC68B1
:10451000D3F800A0211D08460391FEF731FF236A5E
:104520002046984794F82830039913F0040FDED002
:10453000A36953449A4505D2386863602461FEF745
:1045400008FFD4E70023CDF80090524619462046D4
:10455000FFF79CFFCBE70023D1E700BF7C050020DD
:1045600080050020AC0500202DE9F047624D88B0A1
:1045700000272B68D3F80080B8F1000F50D0DB681B
:10458000D3F800800024FFF7F3FB04A8FFF7A0FF97
:10459000049B5A4E8246002B64D1002C47D14045E3
:1045A0004BD3FFF787FC2B68DB68D3F80C9009F13D
:1045B0000400FEF7E5FE99F82830580732D5D9F8FF
:1045C00018104346524641444846FFF725FF30B194
:1045D00000942346424621464846FFF757FFD9F844
:1045E0002030484698473068002204A9FFF7B9F800
:1045F0000028BED0049B0698002B36DB069C63691E
:10460000002B39D103A8FFF763FF049B0246092B57
:10461000E9D8DFE803F0353535545B693535545B4F
:104620000124B0E723F0010389F82830D7E7344BA1
:104630001B681C68B4FA84F4640930682246A8EB4D
:104640000A01FFF717F9FFF735FC0028CBD14FF02F
:10465000E0234FF08052C3F8042DBFF34F8FBFF318
:104660006F8FC0E7FFF726FCBDE7059B07999847CA
:10467000049B002BB7DBC1E7201DFEF781FEC1E7DD
:1046800094F82830A16943F0010384F82830059B91
:1046900020461944FFF7C0FE0028A4D0236A204614
:1046A000984794F8283059079DD5A2690599009735
:1046B00000230A4420461946FFF7E8FE93E794F8E2
:1046C000283023F0010384F828308CE794F8283050
:1046D00043F0010384F828300599A16103460144A1
:1046E0002046FFF799FE7EE794F828309A07E8D431
:1046F000204600F0B7F976E77C050020B0050020E1
:104700008005002082B0002301934FF0500383F313
:104710001188BFF36F8FBFF34F8F019B002BFCD02D
:1047200002B0704708480068006880F308884FF0BE
:10473000000080F3148862B661B6BFF34F8FBFF3F9
:104740006F8F00DF00BF000008ED00E0DFF80C0015
:10475000016841F4700101607047000088ED00E0DD
:104760004FF0807340F8043C074B40F80C3C21F0BC
:1047700001016FF0020340F8081C40F8202C40F8BB
:10478000243C4438704700BF054700080000000083
:10479000074B19680868B0E8F04F80F30988BFF349
:1047A0006F8F4FF0000080F311887047AFF30080E7
:1047B000500400204FF0500383F31188BFF36F8F34
:1047C000BFF34F8F024A136801331360704700BF75
:1047D0000C000020034A1368013B13600BB983F3FC
:1047E000118870470C00002000000000000000004D
:1047F000EFF30980BFF36F8F154B1A681EF0100F8F
:1048000008BF20ED108A20E9F04F10602DE9090063
:104810004FF0500080F31188BFF34F8FBFF36F8FBD
:10482000FFF712FC4FF0000080F3118809BC1968F3
:104830000868B0E8F04F1EF0100F08BFB0EC108A07
:1048400080F30988BFF36F8F704700BFAFF300801C
:104850005004002037B5274B1A78D2B20192FF22BC
:104860001A701B78244ADBB28DF803309DF80330B0
:104870000723136000219DF80300000603F1FF34B5
:104880002ED401B1136013681B0203F4E0631360BC
:10489000019B184A4FF0E024DBB21370D4F8203D9E
:1048A00043F47003C4F8203DD4F8203D43F0704336
:1048B000C4F8203D00F0F4FD104B00251D60FFF70B
:1048C00045FFD4F8343F43F04043C4F8343FFFF78A
:1048D00029FFFFF7B9FBFFF715FF284603B030BDEE
:1048E0009DF803305B00DBB28DF8033001212346D5
:1048F000C1E700BF00E400E0B80500200C00002084
:10490000EFF305830F2B84BF014A9B5C704700BF08
:10491000F0E300E010B50F4B1A461B688342FBD34F
:1049200054681119884201BF416810460919516045
:10493000446801198B4207D1074909688B421FBFA0
:1049400059681B68091941609042036018BF1060E4
:1049500010BD00BFF4530020BC0500202DE9F0413C
:104960000446FFF705FA3749374D0B68FBB9374A5C
:10497000374E50071FBF0732364B22F007029B1AF3
:1049800008BF44F620631344083B23F007030020CC
:1049900070603260C3E90000981AC2E900300B6011
:1049A0002D4B18602D4B18604FF000432B602F6883
:1049B000274207D0FFF77EFA00F02AFF0026304694
:1049C000BDE8F081002CF5D004F1080362071CBF9C
:1049D00023F007030833002BECD0DFF88080D8F8F1
:1049E00000509D42E6D31A4A14686068984201D28A
:1049F000266826BB0968A142DCD0216816681160D0
:104A0000C21A102A06F1080604D9E0184260636051
:104A1000FFF780FF62681049AD1A1743104A086813
:104A20006760002323601368C8F80050854203F1D3
:104A3000010338BF0D601360FFF73CFABFE7224661
:104A40003446D2E7BC050020E0530020C00500201A
:104A5000F4530020E0530020E8530020E4530020EA
:104A6000EC53002010B5044600B3114A50F8043C42
:104A7000126813421AD050F8081CB9B923EA02038D
:104A800040F8043CFFF774F90A4A54F8043C1168F2
:104A9000A4F108000B441360FFF73CFF064A1368BB
:104AA000BDE8104001331360FFF704BA10BD00BF2A
:104AB000E0530020E4530020F053002008B5054BDC
:104AC0001B6803B1984700F03FFF80F00100C0B2BF
:104AD00008BD00BFEC5B000838B5054B5D780A24C3
:104AE000284600F095F810B1013CF9D1012038BDFD
:104AF000F05B000838B5054B1D78284600F04AFAEF
:104B00000446284600F0E8FA204638BDF05B00086D
:104B100007B5002301930B4B1A6882420FD19868A6
:104B200001A9FEF7ECFD019B4BB14FF0E0234FF0E4
:104B30008052C3F8042DBFF34F8FBFF36F8F03B0C4
:104B40005DF804FBFC53002070B508B1002070BD77
:104B5000114E736803B1984700F0F6FE0546002831
:104B6000F4D10E4C336823600120FEF778FD032258
:104B7000606029460120FEF7D6FC6368A060002B28
:104B8000E4D00028E2D0284600F066F82073FF3811
:104B900018BF0120DBE700BFF45B0008FC530020D6
:104BA000FFF7B6BF38B50E4B1B6803B1984700F04E
:104BB000CBFE90B90B4B0C491A688D880B4C898938
:104BC000206022EA05021A605D611A68606022EACC
:104BD00001021A600120596138BD0020FCE700BFC6
:104BE0002C5C000800040140FC5B00080C54002011
:104BF000064B10B403EBC0040A1E53F83000A18822
:104C00005DF8044B18BF0122FCF774BBFC5B000885
:104C100008B5064B03EBC00253F830009188FCF74F
:104C200063FB003818BF012008BD00BFFC5B000813
:104C3000074B9A88824208D09B89834207D101237F
:104C4000044A52F8233013B118470023F8E770479D
:104C5000FC5B00080C54002010B50B4A034610788A
:104C60001F280ED8022B0CD8084C411C11700122B1
:104C700002FA00F154F8232022EA010244F823202A
:104C800010BDFF20FCE700BF145400201C5400207E
:104C90001A4B10B500241C70194B1C60194B4FF0B7
:104CA000FF32C3E900229A602046FFF7D5FF164B7A
:104CB000FF2818701FD0154B154A1B685B00B3FB0B
:104CC000F2F34FF0E0225361124BF02283F82320DD
:104CD000114B9A6802F00C02042A9A6804D142F43B
:104CE00000429A60012007E012F00C0FFAD19A6896
:104CF00022F40042F5E7204610BD00BF1454002006
:104D0000185400201C5400201554002000000020DE
:104D100040420F0000ED00E00010024010B50446D4
:104D2000FFF748FD054A0123116803FA04F0084320
:104D3000BDE810401060FFF74DBD00BF18540020C3
:104D400008B5174A174B10689968084214D1164ADB
:104D5000136823F0070343F002031360FBF72CFFF3
:104D6000124B134A196811609A68124B1A60124A62
:104D7000136943F0040309E012685B681A4207D024
:104D8000FBF71AFF0C4A136923F00403136108BDF3
:104D9000054A136823F0070343F00103DDE700BF72
:104DA000185400201C5400200070004000100240E5
:104DB0002C5400202854002000ED00E0104A136914
:104DC0005B0710B418D54FF0E0230021996107214B
:104DD00019610C4B0C491C7808680123A34003435C
:104DE0000B600A4B19680A4B19600A4909689960F7
:104DF000136923F0040313615DF8044BFBF7E6BE6F
:104E000000ED00E015540020185400202C54002020
:104E100000100240285400204FF0E023002210B57B
:104E20001A61EFF311804FF0500383F31188BFF341
:104E30006F8FBFF34F8F064A064914780B68012223
:104E4000A24023EA02030B6080F3118810BD00BF6B
:104E5000155400201854002010B50D4C636803B1A0
:104E6000984700F071FD08B1002010BD0120FFF748
:104E7000F3FEFF28F8D0FFF751FF206847F6FE72D7
:104E800047F6FF71FCF74EFFB0FA80F04009ECE7FF
:104E9000305C0008084B1B6810B51A68074CD169D4
:104EA0002068D3698B42FAD10133B3F5004F28BF94
:104EB000002303EBC03010BD305C000834540020E8
:104EC000064B1B68834207D1054A13680133136000
:104ED000044B1B6803B11847704700BF305C0008E3
:104EE000345400203054002070B508B1002070BD4B
:104EF0001C4C2368002BF9D11B4E736803B19847F3
:104F000000F022FD05460028F0D13368236001201F
:104F1000FEF7A5FB0322606029460120FEF703FB94
:104F20006368A060002BE1D00028DFD02846FFF79F
:104F300093FEFF282073D9D02268D2E904303BB910
:104F400010B960730120D2E70128CFD16073CEE79A
:104F5000022BCBD108B96373F4E70128C6D1032330
:104F60006373C4E738540020385C000810B5044669
:104F7000FFF720FC6069FEF7E8FC012802BF226809
:104F80000023A361BDE8104008BFC2F88030FFF7DE
:104F900021BC000001282DE9F843044602D9002075
:104FA000BDE8F883494F182303FB0073DB6803B1A6
:104FB000984700F0C9FC06460028F0D11822444D5D
:104FC00062432823634307EB020905EB0308BA5841
:104FD000EA50D9F81030C8F81800C8E903000146B3
:104FE000C8F8203003220120FEF79DFAC8F8080017
:104FF0000028D4D0324601212020FEF788FCC8F8D2
:1050000014000028CBD0D9F80830002B35D04FF44D
:105010007A725343B3FBF2F3282202FB045253602B
:10502000182303FB047318791077FF2828D0012177
:105030005177FFF7DDFD0020FFF70EFE28236343C5
:10504000EE18EB58B0771A68224B9A420CBF022038
:105050000120FFF701FE28236343EA18F077917FD0
:10506000FF299CD0D17FFF2999D0182101FB04771B
:10507000796941B95162012092E74FF0FF33CBE7E4
:1050800002235377D7E7EE58B368B3F1805F16D0A9
:10509000002B0CBF09230A234FF47A725343994221
:1050A0004FF028000DD8B3FBF1F3326800FB045435
:1050B000D26870684243B2FBF3F36362DBE7082314
:1050C000EAE700FB04540023F7E700BF405C000858
:1050D0004854002000800040F8B5282747433A4D47
:1050E0000446FFF767FBEB599A68B2F5805F05EB62
:1050F00007064DD11A69002A4DD140F2FF12A3F8DC
:105100005C201B6801221A6202221A6204221A62BF
:1051100008221A624FF400621A62282303FB045328
:105120001A68116801F1080252E8002F42F00102EA
:10513000083141E800200028F2D11B681B692822B1
:1051400002FB0452A3B31368196851E8003F43F40B
:10515000907341E800300028F5D1282303FB045365
:105160005A7F022A04D00021187F5977FFF740FDAB
:10517000282044432F192859FEF7A3F8FFF72AFBEC
:105180003046FFF7F3FEF87FBDE8F840FFF7C6BDF5
:105190001AB91A6932B9FF22B1E7B2F1805F05D1BD
:1051A0001A690AB97F22AAE73F22A8E70022A6E7E8
:1051B0001368196851E8003F43F0200341E80030CC
:1051C0000028F5D1C9E700BF485400202DE9F74376
:1051D000002301932823714D43430646EB581A6878
:1051E000D769D2F80080916817F0010409D018F44B
:1051F000807406D001241462D3F880002043C3F8E1
:105200008000B8070AD5C80708D502201062D3F875
:10521000800040F00400C3F88000012478070AD51C
:10522000C80708D504201062D3F8800040F00200BF
:10523000C3F88000012438070DD518F0200F0AD0DC
:10524000C90708D508211162D3F8801041F0080180
:10525000C3F88010012438050CD518F0806F09D0F0
:105260004FF400611162D3F8801041F02001C3F8BF
:1052700080100124B90630D518F0200F2DD0928C63
:10528000B3F85C3013408DF8033084B94FF028092F
:1052900009FB065901ABD9F8140001220DF10301F5
:1052A000FEF780FBD9F818301844C9F818002823F5
:1052B00003FB06539A69182A06D95A7F22B901219D
:1052C000187F5977FFF794FC28237343EB581A682B
:1052D000138B9BB243F0080313837CB1282404FB97
:1052E0000654FF238DF80330606901AB01220DF1F4
:1052F0000301FEF757FBA3691844A0613A0628D5BD
:1053000018F0800F25D028227243AB18AA58D9680C
:105310001268481CD860097811851A69013A1A6127
:10532000BAB9DA601A68116851E8002F22F08002D9
:1053300041E800200028F5D1282202FB065213681C
:10534000196851E8003F43F0400341E8003000286D
:10535000F5D17B0613D518F0400F10D0282000FBA4
:1053600006552B681A6852E8003F23F0400342E8D4
:1053700000310029F5D1A86801A9FEF7C0F9019B09
:105380004BB14FF0E0234FF08052C3F8042DBFF330
:105390004F8FBFF36F8F03B0BDE8F08348540020F8
:1053A00008B508B9364B5868B0F5FF7F19D84FF4E7
:1053B000FA435843B0F57A6F5FD300224FF47A6313
:1053C000B0FBF3F32E4908682E49C0E9001240F6FD
:1053D000FF72C0E90232FCF700FBB0FA80F040092E
:1053E00008BD40F2FE33984208D84FF4FA435843C0
:1053F00001224FF4FA53B0FBF3F3E3E740F2FE73FC
:10540000984208D84FF4FA43584302224FF47A5393
:10541000B0FBF3F3D6E740F6FE73984206D84FF49C
:10542000FA4358430322B0FBF3F3CBE741F6FD7395
:10543000984208D84FF4FA43584304224FF47A4371
:10544000B0FBF3F3BEE743F6FB73984208D84FF482
:10545000FA43584305224FF4FA33B0FBF3F3B1E7B4
:1054600047F6F773984208D84FF4FA435843062298
:105470004FF47A33B0FBF3F3A4E70020B0E700BFAA
:10548000705C000800300040014B5868FFF788BF8F
:10549000705C0008014B1868FCF7CCBA705C00081F
:1054A0001F4B20499A6D42F0004210B59A65D3F81F
:1054B000882042F44022C3F888208A6842F00042E3
:1054C0008A609A6B42F000429A639A6B22F0004223
:1054D0009A63154B21221A60144B40F2CE71196069
:1054E000134B6FF0E7011960124B09209860002000
:1054F000D8604FF6FF74012018619C610E4C5A6110
:1055000020700E4802800E4A11601A6942F00402AF
:105510001A610C4BF02283F8412302229A6010BDDD
:1055200000100240002004E0A4540020AC540020ED
:10553000A0540020007C004098540020A854002073
:105540009C54002000E100E02DE9F84FDFF8908145
:105550000546D8F8004072B6FEF75EFE10B962B696
:10556000BDE8F88FA542DFF87C91594FD9F80000CB
:10557000584E28BF254605F1FF3A4FF47A714FEA9D
:10558000CA33B3FBF1F201FB12330344C9F8003014
:10559000D9F80030504CB3F5FA7FC8BFD9F80030C5
:1055A0004FF00101C4BFA3F57A73C9F80030397018
:1055B0002388C8BF013212FA83F39BB2238032786A
:1055C00002F0FF035AB9317022884FF6FF7192B290
:1055D0008A4218BF2388414A18BF9BB25361B4F86E
:1055E00000B01FFA8BFBFFF7ABFB25B1BFF34F8F6A
:1055F00030BFBFF36F8FFFF7E1FB62B6BFF36F8F72
:1056000072B623889BB29B4503D1FEF705FE0028A6
:10561000E9D162B64FF0500383F31188BFF36F8F67
:10562000BFF34F8F23889BB29B4547D12B4BD96942
:10563000DA698A42FBD12388D8F800109BB2013B7B
:105640009B1A9BB2C9034FF47A70B1FBF0F19942F7
:1056500034D34343B5EBD33F4FEAD33208BF52466E
:1056600062B3D9F80030AAEB020AD203B2FBF0F120
:1056700000FB11229A1AC9F80020D9F8003013F55E
:10568000FA7FBEBFD9F800301B18C9F80030238854
:10569000B8BF01315B1A9BB22380327802F0FF035E
:1056A00062B90122327022884FF6FF7192B28A42AB
:1056B00018BF2388094A18BF9BB2536100233B706F
:1056C00083F311885046BDE8F84FFEF75FBB00BF7B
:1056D0009954002098540020A8540020007C0040D9
:1056E000AC5400209C540020F8B5414B1A68D107F7
:1056F00044BF01225A60DA69DD699542FBD13D4C15
:105700003D4E23883068ADB2EB1A9BB298420FD859
:10571000C0F57F42FF329A420AD9384A127802F025
:10572000FF072AB9B3FBF0F000F074F825803B4680
:10573000316899423FD9324A3248136800680344BD
:105740001360136813F5FA7FDEBF136803F57A73ED
:1057500013602388D8BF01F1FF3111FA83F39BB2A4
:10576000294923800A7802F0FF0362B922884FF6A4
:10577000FF7092B2824218BF23881D4A18BF9BB2A5
:10578000536101230B704FF0500383F31188BFF373
:105790006F8FBFF34F8FFEF701FB002383F3118858
:1057A00048B14FF0E0234FF08052C3F8042DBFF30F
:1057B0004F8FBFF36F8F0E4B1A68120713D5082255
:1057C0005A605B6922889B1A9BB2012B0CD92388F3
:1057D0004FF6FF729BB2934218BF2388044A14BF4E
:1057E0009BB200235361F8BD074B00221A70FAE701
:1057F000007C0040A8540020A454002099540020AC
:105800009C540020A05400209854002000F053B86D
:1058100000F051B8034A136801282CBF1B1801334C
:1058200013607047B05400207047000008B5FFF7C0
:1058300053F90A4B187078B10120FDF710FF084B9F
:10584000186008B9002008BDFFF754F90028F9D006
:10585000044B01221A70F6E70120F4E7B45400204B
:10586000B8540020B554002008B5FFF713FB034BD4
:10587000A0FB0330DB0B43EA404008BD40420F0071
:1058800038B50446FFF706FB610C064A05460023BF
:10589000E003FAF7A5FC441CFFF7FCFA431BA34204
:1058A000FAD338BD40420F004FF47A735843B0FB2F
:1058B000F3F0FEF76BBBFBF761BB08B500F00AF82D
:1058C000FFF7B4FF00F025F8FAF75CFEFEF712FAD6
:1058D000002008BD38B5FBF7C3FA0546FFF7EEF820
:1058E000044610B1B5FA85F46409FFF7CDFD002830
:1058F00008BF0024FFF756F9002808BF0024FFF76F
:10590000C7F9002808BF0024FAF7ECFD04F00100F5
:1059100038BD10B5FFF7A0FA04460020FFF7E4FAFF
:1059200000284FF0000008BF0024FFF70DF9002801
:105930004FF0010008BF0024FFF72CFB002808BF30
:10594000002404F0010010BDFBF722B870B50D4D26
:105950000D4C641BA4100026A64209D10B4D0C4C23
:1059600000F0F2F8641BA4100026A64205D170BD19
:1059700055F8043B98470136EEE755F8043B984745
:105980000136F2E7E85C0008E85C0008E85C000823
:10599000EC5C0008704770470A44914200F1FF3305
:1059A00000D1704710B511F8014B03F8014F914237
:1059B000F9D110BD02440346934200D1704703F869
:1059C000011BF9E738B50C460968054609B1FFF730
:1059D000F9FF21462846BDE8384000F069B80000CC
:1059E0002C4B1B68834270B5044651D0436A43B1C7
:1059F000DB68002B4AD1636A196811B1204600F0B8
:105A000057F8616911B1204600F052F8616A11B18E
:105A1000204600F04DF8A16B11B1204600F048F887
:105A2000E16B11B1204600F043F8216C11B1204622
:105A300000F03EF8E16D11B1204600F039F8A16D9B
:105A400011B1204600F034F8616B11B1204600F02E
:105A50002FF8A369E3B1A36A20469847A16CB9B1B6
:105A60002046BDE87040FFF7ADBF495941B9043544
:105A7000636A802DD968F8D1204600F019F8BAE79A
:105A80000E68204600F014F83146EFE70025EFE7F6
:105A900070BD00BF100000200148FFF77BBF00BFB2
:105AA000BC5400200148FFF776BF00BFBC54002063
:105AB00037B5002944D051F8043C0190002BA1F1E6
:105AC0000404B8BFE418FFF7E7FF1E4A0198136803
:105AD00033B96360146003B0BDE83040FFF7E2BF44
